{
  "contractName": "VoteContract",
  "abi": [
    {
      "inputs": [],
      "stateMutability": "nonpayable",
      "type": "constructor"
    },
    {
      "inputs": [
        {
          "internalType": "uint256",
          "name": "",
          "type": "uint256"
        }
      ],
      "name": "Elections",
      "outputs": [
        {
          "internalType": "address",
          "name": "election_owner",
          "type": "address"
        },
        {
          "internalType": "string",
          "name": "title",
          "type": "string"
        },
        {
          "internalType": "bool",
          "name": "start",
          "type": "bool"
        },
        {
          "internalType": "bool",
          "name": "end",
          "type": "bool"
        },
        {
          "internalType": "uint256",
          "name": "candidateCount",
          "type": "uint256"
        },
        {
          "internalType": "uint256",
          "name": "voterCount",
          "type": "uint256"
        }
      ],
      "stateMutability": "view",
      "type": "function",
      "constant": true
    },
    {
      "inputs": [],
      "name": "owner",
      "outputs": [
        {
          "internalType": "address",
          "name": "",
          "type": "address"
        }
      ],
      "stateMutability": "view",
      "type": "function",
      "constant": true
    },
    {
      "inputs": [
        {
          "internalType": "string",
          "name": "_title",
          "type": "string"
        }
      ],
      "name": "createElection",
      "outputs": [],
      "stateMutability": "nonpayable",
      "type": "function"
    },
    {
      "inputs": [
        {
          "internalType": "string",
          "name": "_name",
          "type": "string"
        },
        {
          "internalType": "uint256",
          "name": "_electionID",
          "type": "uint256"
        }
      ],
      "name": "addCandidate",
      "outputs": [],
      "stateMutability": "nonpayable",
      "type": "function"
    },
    {
      "inputs": [
        {
          "internalType": "string",
          "name": "_name",
          "type": "string"
        },
        {
          "internalType": "string",
          "name": "_uniqueID",
          "type": "string"
        },
        {
          "internalType": "uint256",
          "name": "_electionID",
          "type": "uint256"
        }
      ],
      "name": "applyToVote",
      "outputs": [],
      "stateMutability": "nonpayable",
      "type": "function"
    },
    {
      "inputs": [
        {
          "internalType": "uint256",
          "name": "candidateId",
          "type": "uint256"
        },
        {
          "internalType": "uint256",
          "name": "_electionID",
          "type": "uint256"
        }
      ],
      "name": "vote",
      "outputs": [],
      "stateMutability": "nonpayable",
      "type": "function"
    },
    {
      "inputs": [
        {
          "internalType": "address",
          "name": "_address",
          "type": "address"
        },
        {
          "internalType": "uint256",
          "name": "_electionID",
          "type": "uint256"
        }
      ],
      "name": "verifyVoter",
      "outputs": [],
      "stateMutability": "nonpayable",
      "type": "function"
    },
    {
      "inputs": [
        {
          "internalType": "uint256",
          "name": "_electionID",
          "type": "uint256"
        }
      ],
      "name": "startElection",
      "outputs": [],
      "stateMutability": "nonpayable",
      "type": "function"
    },
    {
      "inputs": [
        {
          "internalType": "uint256",
          "name": "_electionID",
          "type": "uint256"
        }
      ],
      "name": "endElection",
      "outputs": [],
      "stateMutability": "nonpayable",
      "type": "function"
    },
    {
      "inputs": [
        {
          "internalType": "uint256",
          "name": "_electionID",
          "type": "uint256"
        }
      ],
      "name": "getStart",
      "outputs": [
        {
          "internalType": "bool",
          "name": "",
          "type": "bool"
        }
      ],
      "stateMutability": "view",
      "type": "function",
      "constant": true
    },
    {
      "inputs": [
        {
          "internalType": "uint256",
          "name": "_electionID",
          "type": "uint256"
        }
      ],
      "name": "getEnd",
      "outputs": [
        {
          "internalType": "bool",
          "name": "",
          "type": "bool"
        }
      ],
      "stateMutability": "view",
      "type": "function",
      "constant": true
    },
    {
      "inputs": [
        {
          "internalType": "uint256",
          "name": "_electionID",
          "type": "uint256"
        }
      ],
      "name": "getElectionOwner",
      "outputs": [
        {
          "internalType": "address",
          "name": "",
          "type": "address"
        }
      ],
      "stateMutability": "view",
      "type": "function",
      "constant": true
    },
    {
      "inputs": [
        {
          "internalType": "uint256",
          "name": "_electionID",
          "type": "uint256"
        }
      ],
      "name": "getElectionName",
      "outputs": [
        {
          "internalType": "string",
          "name": "",
          "type": "string"
        }
      ],
      "stateMutability": "view",
      "type": "function",
      "constant": true
    },
    {
      "inputs": [],
      "name": "getElectionsCounter",
      "outputs": [
        {
          "internalType": "uint256",
          "name": "",
          "type": "uint256"
        }
      ],
      "stateMutability": "view",
      "type": "function",
      "constant": true
    },
    {
      "inputs": [
        {
          "internalType": "uint256",
          "name": "_electionID",
          "type": "uint256"
        }
      ],
      "name": "getCandidateNumber",
      "outputs": [
        {
          "internalType": "uint256",
          "name": "",
          "type": "uint256"
        }
      ],
      "stateMutability": "view",
      "type": "function",
      "constant": true
    },
    {
      "inputs": [
        {
          "internalType": "uint256",
          "name": "_electionID",
          "type": "uint256"
        }
      ],
      "name": "getVoterCount",
      "outputs": [
        {
          "internalType": "uint256",
          "name": "",
          "type": "uint256"
        }
      ],
      "stateMutability": "view",
      "type": "function",
      "constant": true
    },
    {
      "inputs": [
        {
          "internalType": "uint256",
          "name": "_electionID",
          "type": "uint256"
        },
        {
          "internalType": "string",
          "name": "_voterID",
          "type": "string"
        }
      ],
      "name": "voterExists",
      "outputs": [
        {
          "internalType": "bool",
          "name": "",
          "type": "bool"
        }
      ],
      "stateMutability": "view",
      "type": "function",
      "constant": true
    },
    {
      "inputs": [
        {
          "internalType": "address",
          "name": "_address",
          "type": "address"
        },
        {
          "internalType": "uint256",
          "name": "_electionID",
          "type": "uint256"
        }
      ],
      "name": "getVotingDetails",
      "outputs": [
        {
          "internalType": "bool",
          "name": "isVerified",
          "type": "bool"
        },
        {
          "internalType": "bool",
          "name": "hasVoted",
          "type": "bool"
        }
      ],
      "stateMutability": "view",
      "type": "function",
      "constant": true
    },
    {
      "inputs": [
        {
          "internalType": "address",
          "name": "_address",
          "type": "address"
        },
        {
          "internalType": "uint256",
          "name": "_electionID",
          "type": "uint256"
        }
      ],
      "name": "isVoterRegistered",
      "outputs": [
        {
          "internalType": "bool",
          "name": "isRegistered",
          "type": "bool"
        }
      ],
      "stateMutability": "view",
      "type": "function",
      "constant": true
    },
    {
      "inputs": [
        {
          "internalType": "uint256",
          "name": "_electionID",
          "type": "uint256"
        }
      ],
      "name": "getCandidates",
      "outputs": [
        {
          "components": [
            {
              "internalType": "string",
              "name": "name",
              "type": "string"
            },
            {
              "internalType": "uint256",
              "name": "voteCount",
              "type": "uint256"
            },
            {
              "internalType": "uint256",
              "name": "candidateId",
              "type": "uint256"
            }
          ],
          "internalType": "struct VoteContract.Candidate[]",
          "name": "",
          "type": "tuple[]"
        }
      ],
      "stateMutability": "view",
      "type": "function",
      "constant": true
    },
    {
      "inputs": [
        {
          "internalType": "uint256",
          "name": "_electionID",
          "type": "uint256"
        }
      ],
      "name": "getVoters",
      "outputs": [
        {
          "components": [
            {
              "internalType": "address",
              "name": "voterAddress",
              "type": "address"
            },
            {
              "internalType": "string",
              "name": "name",
              "type": "string"
            },
            {
              "internalType": "string",
              "name": "uniqueID",
              "type": "string"
            },
            {
              "internalType": "bool",
              "name": "hasVoted",
              "type": "bool"
            },
            {
              "internalType": "bool",
              "name": "isVerified",
              "type": "bool"
            }
          ],
          "internalType": "struct VoteContract.Voter[]",
          "name": "",
          "type": "tuple[]"
        }
      ],
      "stateMutability": "view",
      "type": "function",
      "constant": true
    }
  ],
  "bytecode": "0x608060405234801561001057600080fd5b50336000806101000a81548173ffffffffffffffffffffffffffffffffffffffff021916908373ffffffffffffffffffffffffffffffffffffffff16021790555060006001819055506120bc806100686000396000f3fe608060405234801561001057600080fd5b50600436106101375760003560e01c80638da5cb5b116100b8578063b384abef1161007c578063b384abef1461039e578063b6bf1fca146103ba578063dbc438f9146103d6578063deeb732714610406578063e23cec7b14610436578063e92e5c341461045257610137565b80638da5cb5b146102f957806396245185146103175780639c98bcbb14610335578063aa9675c614610351578063b1b27e791461038257610137565b806352675be3116100ff57806352675be31461021d5780635bc22d1b1461024d5780636d32dc4b1461027d5780637ee96f6d1461029957806386b646f2146102c957610137565b806315cf4a5f1461013c5780631e9598e2146101585780633e39a7a51461018d5780634a430a98146101bd5780634f5a9968146101ed575b600080fd5b61015660048036038101906101519190611836565b610482565b005b610172600480360381019061016d919061194a565b6105b9565b60405161018496959493929190611d6e565b60405180910390f35b6101a760048036038101906101a2919061194a565b6106c7565b6040516101b49190611dd6565b60405180910390f35b6101d760048036038101906101d2919061194a565b6107f2565b6040516101e49190611e80565b60405180910390f35b610207600480360381019061020291906117fa565b610812565b6040516102149190611e1a565b60405180910390f35b6102376004803603810190610232919061194a565b6108e1565b6040516102449190611e5e565b60405180910390f35b6102676004803603810190610262919061194a565b610999565b6040516102749190611e1a565b60405180910390f35b6102976004803603810190610292919061194a565b6109c6565b005b6102b360048036038101906102ae919061194a565b610a97565b6040516102c09190611e1a565b60405180910390f35b6102e360048036038101906102de919061194a565b610ac4565b6040516102f09190611df8565b60405180910390f35b610301610d09565b60405161030e9190611d53565b60405180910390f35b61031f610d2d565b60405161032c9190611e80565b60405180910390f35b61034f600480360381019061034a919061194a565b610d37565b005b61036b600480360381019061036691906117fa565b610e08565b604051610379929190611e35565b60405180910390f35b61039c600480360381019061039791906117fa565b610f52565b005b6103b860048036038101906103b391906119c7565b6110d0565b005b6103d460048036038101906103cf9190611877565b611327565b005b6103f060048036038101906103eb9190611973565b611496565b6040516103fd9190611e1a565b60405180910390f35b610420600480360381019061041b919061194a565b611534565b60405161042d9190611d53565b60405180910390f35b610450600480360381019061044b91906118f6565b611574565b005b61046c6004803603810190610467919061194a565b6116b1565b6040516104799190611e80565b60405180910390f35b3360026000600154815260200190815260200160002060000160006101000a81548173ffffffffffffffffffffffffffffffffffffffff021916908373ffffffffffffffffffffffffffffffffffffffff1602179055508060026000600154815260200190815260200160002060010190805190602001906105059291906116d1565b50600060026000600154815260200190815260200160002060040160006101000a81548160ff021916908315150217905550600060026000600154815260200190815260200160002060040160016101000a81548160ff02191690831515021790555060006002600060015481526020019081526020016000206005018190555060006002600060015481526020019081526020016000206006018190555060016000815480929190600101919050555050565b60026020528060005260406000206000915090508060000160009054906101000a900473ffffffffffffffffffffffffffffffffffffffff1690806001018054600181600116156101000203166002900480601f01602080910402602001604051908101604052809291908181526020018280546001816001161561010002031660029004801561068b5780601f106106605761010080835404028352916020019161068b565b820191906000526020600020905b81548152906001019060200180831161066e57829003601f168201915b5050505050908060040160009054906101000a900460ff16908060040160019054906101000a900460ff16908060050154908060060154905086565b606060026000838152602001908152602001600020600301805480602002602001604051908101604052809291908181526020016000905b828210156107e75783829060005260206000209060030201604051806060016040529081600082018054600181600116156101000203166002900480601f0160208091040260200160405190810160405280929190818152602001828054600181600116156101000203166002900480156107bb5780601f10610790576101008083540402835291602001916107bb565b820191906000526020600020905b81548152906001019060200180831161079e57829003601f168201915b5050505050815260200160018201548152602001600282015481525050815260200190600101906106ff565b505050509050919050565b600060026000838152602001908152602001600020600501549050919050565b600080600090505b60026000848152602001908152602001600020600601548110156108d5578373ffffffffffffffffffffffffffffffffffffffff1660026000858152602001908152602001600020600201828154811061087057fe5b906000526020600020906004020160000160009054906101000a900473ffffffffffffffffffffffffffffffffffffffff1673ffffffffffffffffffffffffffffffffffffffff1614156108c85760019150506108db565b808060010191505061081a565b50600090505b92915050565b6060600260008381526020019081526020016000206001018054600181600116156101000203166002900480601f01602080910402602001604051908101604052809291908181526020018280546001816001161561010002031660029004801561098d5780601f106109625761010080835404028352916020019161098d565b820191906000526020600020905b81548152906001019060200180831161097057829003601f168201915b50505050509050919050565b60006002600083815260200190815260200160002060040160009054906101000a900460ff169050919050565b803373ffffffffffffffffffffffffffffffffffffffff166002600083815260200190815260200160002060000160009054906101000a900473ffffffffffffffffffffffffffffffffffffffff1673ffffffffffffffffffffffffffffffffffffffff1614610a3557600080fd5b60016002600084815260200190815260200160002060040160006101000a81548160ff02191690831515021790555060006002600084815260200190815260200160002060040160016101000a81548160ff0219169083151502179055505050565b60006002600083815260200190815260200160002060040160019054906101000a900460ff169050919050565b606060026000838152602001908152602001600020600201805480602002602001604051908101604052809291908181526020016000905b82821015610cfe57838290600052602060002090600402016040518060a00160405290816000820160009054906101000a900473ffffffffffffffffffffffffffffffffffffffff1673ffffffffffffffffffffffffffffffffffffffff1673ffffffffffffffffffffffffffffffffffffffff168152602001600182018054600181600116156101000203166002900480601f016020809104026020016040519081016040528092919081815260200182805460018160011615610100020316600290048015610c0e5780601f10610be357610100808354040283529160200191610c0e565b820191906000526020600020905b815481529060010190602001808311610bf157829003601f168201915b50505050508152602001600282018054600181600116156101000203166002900480601f016020809104026020016040519081016040528092919081815260200182805460018160011615610100020316600290048015610cb05780601f10610c8557610100808354040283529160200191610cb0565b820191906000526020600020905b815481529060010190602001808311610c9357829003601f168201915b505050505081526020016003820160009054906101000a900460ff161515151581526020016003820160019054906101000a900460ff16151515158152505081526020019060010190610afc565b505050509050919050565b60008054906101000a900473ffffffffffffffffffffffffffffffffffffffff1681565b6000600154905090565b803373ffffffffffffffffffffffffffffffffffffffff166002600083815260200190815260200160002060000160009054906101000a900473ffffffffffffffffffffffffffffffffffffffff1673ffffffffffffffffffffffffffffffffffffffff1614610da657600080fd5b60016002600084815260200190815260200160002060040160016101000a81548160ff02191690831515021790555060006002600084815260200190815260200160002060040160006101000a81548160ff0219169083151502179055505050565b60008060005b6002600085815260200190815260200160002060060154811015610f49578473ffffffffffffffffffffffffffffffffffffffff16600260008681526020019081526020016000206002018281548110610e6457fe5b906000526020600020906004020160000160009054906101000a900473ffffffffffffffffffffffffffffffffffffffff1673ffffffffffffffffffffffffffffffffffffffff161415610f3c57600260008581526020019081526020016000206002018181548110610ed357fe5b906000526020600020906004020160030160019054906101000a900460ff16600260008681526020019081526020016000206002018281548110610f1357fe5b906000526020600020906004020160030160009054906101000a900460ff169250925050610f4b565b8080600101915050610e0e565b505b9250929050565b803373ffffffffffffffffffffffffffffffffffffffff166002600083815260200190815260200160002060000160009054906101000a900473ffffffffffffffffffffffffffffffffffffffff1673ffffffffffffffffffffffffffffffffffffffff1614610fc157600080fd5b600080600090505b600260008581526020019081526020016000206006015481101561107e578473ffffffffffffffffffffffffffffffffffffffff1660026000868152602001908152602001600020600201828154811061101f57fe5b906000526020600020906004020160000160009054906101000a900473ffffffffffffffffffffffffffffffffffffffff1673ffffffffffffffffffffffffffffffffffffffff161415611071578091505b8080600101915050610fc9565b5060016002600085815260200190815260200160002060020182815481106110a257fe5b906000526020600020906004020160030160016101000a81548160ff02191690831515021790555050505050565b600080600090505b600260008481526020019081526020016000206006015481101561118d573373ffffffffffffffffffffffffffffffffffffffff1660026000858152602001908152602001600020600201828154811061112e57fe5b906000526020600020906004020160000160009054906101000a900473ffffffffffffffffffffffffffffffffffffffff1673ffffffffffffffffffffffffffffffffffffffff161415611180578091505b80806001019150506110d8565b50600015156002600084815260200190815260200160002060020182815481106111b357fe5b906000526020600020906004020160030160009054906101000a900460ff161515146111de57600080fd5b6001151560026000848152602001908152602001600020600201828154811061120357fe5b906000526020600020906004020160030160019054906101000a900460ff1615151461122e57600080fd5b600115156002600084815260200190815260200160002060040160009054906101000a900460ff1615151461126257600080fd5b600015156002600084815260200190815260200160002060040160019054906101000a900460ff1615151461129657600080fd5b60016002600084815260200190815260200160002060030184815481106112b957fe5b90600052602060002090600302016001016000828254019250508190555060016002600084815260200190815260200160002060020182815481106112fa57fe5b906000526020600020906004020160030160006101000a81548160ff021916908315150217905550505050565b600260008281526020019081526020016000206002016040518060a001604052803373ffffffffffffffffffffffffffffffffffffffff16815260200185815260200184815260200160001515815260200160001515815250908060018154018082558091505060019003906000526020600020906004020160009091909190915060008201518160000160006101000a81548173ffffffffffffffffffffffffffffffffffffffff021916908373ffffffffffffffffffffffffffffffffffffffff160217905550602082015181600101908051906020019061140c9291906116d1565b5060408201518160020190805190602001906114299291906116d1565b5060608201518160030160006101000a81548160ff02191690831515021790555060808201518160030160016101000a81548160ff021916908315150217905550505060016002600083815260200190815260200160002060060160008282540192505081905550505050565b600080600090505b60026000858152602001908152602001600020600601548110156115285782805190602001206002600086815260200190815260200160002060020182815481106114e557fe5b90600052602060002090600402016002016040516115039190611d3c565b6040518091039020141561151b57600191505061152e565b808060010191505061149e565b50600090505b92915050565b60006002600083815260200190815260200160002060000160009054906101000a900473ffffffffffffffffffffffffffffffffffffffff169050919050565b803373ffffffffffffffffffffffffffffffffffffffff166002600083815260200190815260200160002060000160009054906101000a900473ffffffffffffffffffffffffffffffffffffffff1673ffffffffffffffffffffffffffffffffffffffff16146115e357600080fd5b600260008381526020019081526020016000206003016040518060600160405280858152602001600081526020016002600086815260200190815260200160002060050154815250908060018154018082558091505060019003906000526020600020906003020160009091909190915060008201518160000190805190602001906116709291906116d1565b506020820151816001015560408201518160020155505060016002600084815260200190815260200160002060050160008282540192505081905550505050565b600060026000838152602001908152602001600020600601549050919050565b828054600181600116156101000203166002900490600052602060002090601f016020900481019282611707576000855561174e565b82601f1061172057805160ff191683800117855561174e565b8280016001018555821561174e579182015b8281111561174d578251825591602001919060010190611732565b5b50905061175b919061175f565b5090565b5b80821115611778576000816000905550600101611760565b5090565b60008135905061178b81612058565b92915050565b600082601f8301126117a257600080fd5b81356117b56117b082611ecc565b611e9b565b915080825260208301602083018583830111156117d157600080fd5b6117dc838284612003565b50505092915050565b6000813590506117f48161206f565b92915050565b6000806040838503121561180d57600080fd5b600061181b8582860161177c565b925050602061182c858286016117e5565b9150509250929050565b60006020828403121561184857600080fd5b600082013567ffffffffffffffff81111561186257600080fd5b61186e84828501611791565b91505092915050565b60008060006060848603121561188c57600080fd5b600084013567ffffffffffffffff8111156118a657600080fd5b6118b286828701611791565b935050602084013567ffffffffffffffff8111156118cf57600080fd5b6118db86828701611791565b92505060406118ec868287016117e5565b9150509250925092565b6000806040838503121561190957600080fd5b600083013567ffffffffffffffff81111561192357600080fd5b61192f85828601611791565b9250506020611940858286016117e5565b9150509250929050565b60006020828403121561195c57600080fd5b600061196a848285016117e5565b91505092915050565b6000806040838503121561198657600080fd5b6000611994858286016117e5565b925050602083013567ffffffffffffffff8111156119b157600080fd5b6119bd85828601611791565b9150509250929050565b600080604083850312156119da57600080fd5b60006119e8858286016117e5565b92505060206119f9858286016117e5565b9150509250929050565b6000611a0f8383611c51565b905092915050565b6000611a238383611ca1565b905092915050565b611a3481611fbb565b82525050565b611a4381611fbb565b82525050565b6000611a5482611f31565b611a5e8185611f6c565b935083602082028501611a7085611efc565b8060005b85811015611aac5784840389528151611a8d8582611a03565b9450611a9883611f52565b925060208a01995050600181019050611a74565b50829750879550505050505092915050565b6000611ac982611f3c565b611ad38185611f7d565b935083602082028501611ae585611f0c565b8060005b85811015611b215784840389528151611b028582611a17565b9450611b0d83611f5f565b925060208a01995050600181019050611ae9565b50829750879550505050505092915050565b611b3c81611fcd565b82525050565b611b4b81611fcd565b82525050565b600081546001811660008114611b6e5760018114611b9357611bd7565b607f6002830416611b7f8187611f8e565b955060ff1983168652808601935050611bd7565b60028204611ba18187611f8e565b9550611bac85611f1c565b60005b82811015611bce57815481890152600182019150602081019050611baf565b82880195505050505b505092915050565b6000611bea82611f47565b611bf48185611f99565b9350611c04818560208601612012565b611c0d81612047565b840191505092915050565b6000611c2382611f47565b611c2d8185611faa565b9350611c3d818560208601612012565b611c4681612047565b840191505092915050565b60006060830160008301518482036000860152611c6e8282611bdf565b9150506020830151611c836020860182611d1e565b506040830151611c966040860182611d1e565b508091505092915050565b600060a083016000830151611cb96000860182611a2b565b5060208301518482036020860152611cd18282611bdf565b91505060408301518482036040860152611ceb8282611bdf565b9150506060830151611d006060860182611b33565b506080830151611d136080860182611b33565b508091505092915050565b611d2781611ff9565b82525050565b611d3681611ff9565b82525050565b6000611d488284611b51565b915081905092915050565b6000602082019050611d686000830184611a3a565b92915050565b600060c082019050611d836000830189611a3a565b8181036020830152611d958188611c18565b9050611da46040830187611b42565b611db16060830186611b42565b611dbe6080830185611d2d565b611dcb60a0830184611d2d565b979650505050505050565b60006020820190508181036000830152611df08184611a49565b905092915050565b60006020820190508181036000830152611e128184611abe565b905092915050565b6000602082019050611e2f6000830184611b42565b92915050565b6000604082019050611e4a6000830185611b42565b611e576020830184611b42565b9392505050565b60006020820190508181036000830152611e788184611c18565b905092915050565b6000602082019050611e956000830184611d2d565b92915050565b6000604051905081810181811067ffffffffffffffff82111715611ec257611ec1612045565b5b8060405250919050565b600067ffffffffffffffff821115611ee757611ee6612045565b5b601f19601f8301169050602081019050919050565b6000819050602082019050919050565b6000819050602082019050919050565b60008190508160005260206000209050919050565b600081519050919050565b600081519050919050565b600081519050919050565b6000602082019050919050565b6000602082019050919050565b600082825260208201905092915050565b600082825260208201905092915050565b600081905092915050565b600082825260208201905092915050565b600082825260208201905092915050565b6000611fc682611fd9565b9050919050565b60008115159050919050565b600073ffffffffffffffffffffffffffffffffffffffff82169050919050565b6000819050919050565b82818337600083830152505050565b60005b83811015612030578082015181840152602081019050612015565b8381111561203f576000848401525b50505050565bfe5b6000601f19601f8301169050919050565b61206181611fbb565b811461206c57600080fd5b50565b61207881611ff9565b811461208357600080fd5b5056fea264697066735822122005991968591e536ba3db231f63f61c705269d3585cf2f140f7faf55f8c7c493a64736f6c63430007050033",
  "immutableReferences": {},
  "source": "// SPDX-License-Identifier: MIT\r\npragma solidity ^0.7.5;\r\npragma experimental ABIEncoderV2;\r\n\r\n\r\n\r\ncontract VoteContract {\r\n\r\n   address public owner;\r\n   uint ElectionsCounter;\r\n\r\n   struct Candidate{\r\n      string name;\r\n      uint voteCount;\r\n      uint candidateId;\r\n   }\r\n\r\n   struct Voter{\r\n      address voterAddress;\r\n      string name;\r\n      string uniqueID;\r\n      bool hasVoted;\r\n      bool isVerified;\r\n   }\r\n\r\n   struct Election{\r\n      address election_owner;\r\n      string title;\r\n      Voter[] Election_Voters;\r\n      Candidate[] Election_Candidates;\r\n      bool start;\r\n      bool end;\r\n      uint candidateCount;\r\n      uint voterCount;\r\n   }\r\n   \r\n   mapping(uint => Election) public Elections;\r\n\r\n\r\n   constructor(){\r\n      owner = msg.sender;\r\n      ElectionsCounter = 0;\r\n   }\r\n\r\n   //modifier to specify functions that only the election creator/admin can access\r\n   modifier onlyElectionAdmin(uint _electionID){\r\n      require(Elections[_electionID].election_owner == msg.sender);\r\n      _;\r\n   }\r\n\r\n   // this function is used to create a new election\r\n   function createElection(string memory _title) public {\r\n      Elections[ElectionsCounter].election_owner = msg.sender;\r\n      Elections[ElectionsCounter].title = _title;\r\n      Elections[ElectionsCounter].start = false;\r\n      Elections[ElectionsCounter].end = false;\r\n      Elections[ElectionsCounter].candidateCount = 0;\r\n      Elections[ElectionsCounter].voterCount = 0;\r\n      ElectionsCounter++;\r\n\r\n   }\r\n\r\n   // Only election creator/admin has access to this function\r\n   function addCandidate(string memory _name, uint _electionID) public onlyElectionAdmin(_electionID){\r\n      Elections[_electionID].Election_Candidates.push(Candidate({\r\n         name:_name,\r\n         voteCount: 0,\r\n         candidateId : Elections[_electionID].candidateCount\r\n      }));\r\n      Elections[_electionID].candidateCount += 1;\r\n   }\r\n\r\n   // request to be added as voter\r\n   function applyToVote(string memory _name, string memory _uniqueID, uint _electionID) public {\r\n      Elections[_electionID].Election_Voters.push(Voter({\r\n         voterAddress : msg.sender,\r\n         name : _name,\r\n         uniqueID : _uniqueID,\r\n         hasVoted : false,\r\n         isVerified : false\r\n      }));\r\n      Elections[_electionID].voterCount +=1;\r\n   }\r\n\r\n   //Voting function \r\n   function vote(uint candidateId, uint _electionID) public{\r\n      uint voterNumber;\r\n      for(uint i=0;i<Elections[_electionID].voterCount;i++){\r\n         if(Elections[_electionID].Election_Voters[i].voterAddress == msg.sender){\r\n            voterNumber = i;\r\n         }\r\n      }\r\n      require(Elections[_electionID].Election_Voters[voterNumber].hasVoted == false);  // require that voter hasn't voted already.\r\n      require(Elections[_electionID].Election_Voters[voterNumber].isVerified == true); // require that voter is verified.\r\n      require(Elections[_electionID].start == true); // require that the voting process has started\r\n      require(Elections[_electionID].end == false);  // and has not ended yet\r\n      Elections[_electionID].Election_Candidates[candidateId].voteCount += 1;\r\n      Elections[_electionID].Election_Voters[voterNumber].hasVoted = true;\r\n   }\r\n\r\n   // verify a specific voter address\r\n   function verifyVoter(address _address, uint _electionID) public onlyElectionAdmin(_electionID){\r\n      uint voterNumber;\r\n      for(uint i=0;i<Elections[_electionID].voterCount;i++){\r\n         if(Elections[_electionID].Election_Voters[i].voterAddress == _address){\r\n            voterNumber = i;\r\n         }\r\n      }\r\n      Elections[_electionID].Election_Voters[voterNumber].isVerified = true;\r\n   }\r\n\r\n   // start the voting process\r\n   function startElection(uint _electionID) public onlyElectionAdmin(_electionID){\r\n      Elections[_electionID].start = true;\r\n      Elections[_electionID].end = false;\r\n   }\r\n\r\n   // end the voting process\r\n   function endElection(uint _electionID) public onlyElectionAdmin(_electionID){\r\n      Elections[_electionID].end = true;\r\n      Elections[_electionID].start = false;\r\n   }\r\n\r\n   // return start value to know if voting process has started\r\n   function getStart(uint _electionID) public view returns (bool) {\r\n      return Elections[_electionID].start;\r\n   }\r\n\r\n   // return end value to know if voting process has ended\r\n   function getEnd(uint _electionID) public view returns (bool) {\r\n      return Elections[_electionID].end;\r\n   }\r\n\r\n   // get the address of the owner of a specific election\r\n   function getElectionOwner(uint _electionID) public view returns(address){\r\n      return Elections[_electionID].election_owner;\r\n   }\r\n\r\n   // get a specific election name based on ID\r\n   function getElectionName(uint _electionID) public view returns(string memory){\r\n      return Elections[_electionID].title;\r\n   }\r\n\r\n   // get total number of elections created\r\n   function getElectionsCounter() public view returns(uint){\r\n      return ElectionsCounter;\r\n   }\r\n   \r\n   // get total number of candidates of a specific election\r\n   function getCandidateNumber(uint _electionID) public view returns (uint) {\r\n      return Elections[_electionID].candidateCount;\r\n   }\r\n  \r\n   // get total number of voters\r\n   function getVoterCount(uint _electionID) public view returns (uint) {\r\n      return Elections[_electionID].voterCount;\r\n   }\r\n\r\n   //check if given voterID already exists in the list\r\n   function voterExists(uint _electionID,string memory _voterID) public view returns(bool){\r\n      for(uint i=0; i < Elections[_electionID].voterCount;i++){\r\n         //use this cause solidity doesn't support string comparison with '=='\r\n         if(keccak256(bytes(Elections[_electionID].Election_Voters[i].uniqueID)) == keccak256(bytes(_voterID))){\r\n            return true;\r\n         }\r\n      }\r\n      return false;\r\n   }\r\n   \r\n   // return status of specified voter (is he verified? did he already vote?)\r\n   function getVotingDetails(address _address,uint _electionID)public view returns(bool isVerified,bool hasVoted){\r\n      for(uint i=0;i<Elections[_electionID].voterCount;i++){\r\n         if(Elections[_electionID].Election_Voters[i].voterAddress == _address){\r\n            return (Elections[_electionID].Election_Voters[i].isVerified, Elections[_electionID].Election_Voters[i].hasVoted);\r\n         }\r\n      }\r\n   }\r\n   \r\n   // return true if voter has already registered for the election given\r\n   function isVoterRegistered(address _address,uint _electionID) public view returns(bool isRegistered){\r\n      for(uint i=0;i<Elections[_electionID].voterCount;i++){\r\n         if(Elections[_electionID].Election_Voters[i].voterAddress == _address){\r\n            return true;\r\n         }\r\n      }\r\n      return false;\r\n   }\r\n\r\n   //get all the candidates from a specific election\r\n   function getCandidates(uint _electionID) public view returns(Candidate [] memory){\r\n      return Elections[_electionID].Election_Candidates;\r\n   }\r\n\r\n   //get all the voters from a specific Election\r\n   function getVoters(uint _electionID) public view returns(Voter [] memory){\r\n      return Elections[_electionID].Election_Voters;\r\n   }\r\n}",
  "sourcePath": "C:/Users/Makis/Desktop/Thesis Files/Voting_Dapp/contracts/VoteContract.sol",
  "compiler": {
    "name": "solc",
    "version": "0.7.5+commit.eb77ed08.Emscripten.clang"
  },
  "schemaVersion": "3.3.2",
  "updatedAt": "2020-12-12T15:09:19.123Z",
  "networkType": "ethereum",
  "devdoc": {
    "kind": "dev",
    "methods": {},
    "version": 1
  },
  "userdoc": {
    "kind": "user",
    "methods": {},
    "version": 1
  }
}